:100000000EC01DC01CC01BC01AC019C018C017C02C
:1000100016C015C014C013C012C011C010C01124E6
:100020001FBECFE5D2E0DEBFCDBF20E0A0E6B0E04E
:1000300001C01D92A036B207E1F755D05EC0E0CFF7
:10004000009741F0EFECF7E03197F1F700C00000C6
:100050000197C1F7089587B3836087BBC09AC19A9F
:10006000089587B38C7F87BBC19AC09A81E090E0E6
:10007000E7DFC098089587B3836087BBC198C098B5
:10008000C19AC09A089597B3936097BB20E030E07F
:1000900060E870E0482F50E0C198CB01022E02C00A
:1000A000959587950A94E2F784239523892B11F07F
:1000B000C09A01C0C098C19A2F5F3F4F28303105C8
:1000C00059F7C198C19A87B38C7F87BB8EEFC19BCC
:1000D00003C004C0C09B02C0C199FCCF8150B9F7D6
:1000E000C099C9DF0895B7DFBCDF8AEACCDF85E5B8
:0E00F000CADF84E4C8DFBFDFFFCFF894FFCF84
:00000001FF
